:020000040000FA
:02000000842852
:100008007E1480314E010C1E0A280B2840287E01E0
:100018003F08F0000430F036890B0F2870087B0683
:10002800F1007108F600BF014E010C127B08F000C8
:10003800F101F035F10DF035F10DC830F2008030E6
:10004800F30070087207F4007108733DF500760834
:100058007407840075080318750A850000084001B4
:10006800A0078039031DFF30A13DA23DA33D7608BE
:10007800F0007008FB0082280F1C432844288228BF
:100088000F1043018F1A49284A287228921F4D28B9
:100098004E285C280C0803100F1D0314031855285C
:1000A8005828430191165A284301911210168228A4
:1000B80040012308FA002208F9002108F800200866
:1000C800F700770843018C0010160830F000FA3763
:1000D800F90CF80CF70CF00B6B288228111B75280B
:1000E8007628822877088C0010160830F000FA3736
:1000F800F90CF80CF70CF00B7B2882287E1009000D
:100108008528F701F801F901FA014001A001A101D0
:10011800A201A3017E1040019128603051018D0099
:100128000330930037304001920001307E01B8005F
:10013800BB010630BA0001307D01C5000230C6009F
:1001480015307E019100163092003030BD003030FD
:10015800BE00C03043018F0036309000023092005C
:1001680012308D0040010C08A4000430A436890B1D
:10017800BA282408A5002508FB004E0116161914F4
:100188000B178B17C62884280034FF340134003439
:10019800013400340034FF34FF34003400340134B7
:0801A80000340134FF3400347F
:020000040001F9
:08000E00EC3F3F3F9F3FFF1F45
:00000001FF
